:020000040800F2
:10000000600C002041020008CF3100082D2E0008AE
:10001000CD310008D9150008CD39000800000000D6
:10002000000000000000000000000000D3310008C4
:10003000DB15000800000000D1310008D5310008B0
:100040005B0200085B0200085B0200085B0200081C
:100050005B0200085B0200085B0200085B0200080C
:100060005B0200085B0200085B0200085B020008FC
:100070005B0200085B0200085B0200085B020008EC
:100080005B0200085B0200085B0200085B020008DC
:100090005B0200085B0200085B0200085B020008CC
:1000A000793200085B0200085B0200085B0200086E
:1000B000953200085B020008A13200085B020008CC
:1000C0005B0200085B0200085B0200085B0200089C
:1000D0005B02000825390008C13900085B020008EE
:1000E0005B0200085B0200085B0200085B0200087C
:1000F0005B0200085B0200085B0200085B0200086C
:100100005B0200085B020008AD3200085B020008D9
:100110005B0200085B0200085B0200085B0200084B
:100120005B0200085B0200085B0200085B0200083B
:100130005B0200085B0200085B0200085B0200082B
:100140005B0200085B0200085B0200085B0200081B
:100150005B0200085B0200085B0200085B0200080B
:100160005B0200085B0200085B0200085B020008FB
:100170005B0200085B0200085B0200080000000050
:100180005B0200085B02000800F002F800F049F88A
:100190000AA090E8000C82448344AAF10107DA45E2
:1001A00001D100F03EF8AFF2090EBAE80F0013F0EB
:1001B000010F18BFFB1A43F0010318471C40000051
:1001C0003C400000103A24BF78C878C1FAD85207E2
:1001D00024BF30C830C144BF04680C6070470000C1
:1001E0000023002400250026103A28BF78C1FBD840
:1001F000520728BF30C148BF0B607047662903F023
:100200007687002070471FB503F06CFF00F0D8FB25
:1002100004000020002103F02DFCE0601FBD10B59C
:1002200010BD00F0CDFC1146FFF7EDFF03F000FC20
:1002300000F0EBFC03B4FFF7F2FF03BC00F02EFD6F
:100240000948804709480047FEE7FEE7FEE7FEE76A
:10025000FEE7FEE7FEE7FEE7FEE7FEE704480549A6
:10026000054A064B70470000693200088901000802
:1002700060060020600C002060080020600800205C
:1002800053EA020C00F069802DE9F04B4FF00006B4
:10029000002B1FBFB3FA83F503FA05F424FA05F621
:1002A0005E4012BF1643B2FA82F502FA05F4C5F1B8
:1002B00020051EBF22FA05FC44EA0C04203556EA4C
:1002C000044C4FEA144418BF641C4FF000084FF070
:1002D0000009904271EB030C39D3002919BFB1FA20
:1002E00081F701FA07F6B0FA80F700FA07F6C7F1CE
:1002F00020071EBF20FA07FC46EA0C062037B6FB93
:10030000F4FCA7EB0507103F07F01F0BCBF120060D
:100310000CFA0BFB2CFA06F644BFB3460026202F3E
:10032000A4BF5E464FF0000B5BEA060C08BF4FF01F
:10033000010B19EB0B09ABFB027C48EB0608C01B59
:1003400006FB02CC0BFB03CC71EB0C01C1E70B46A7
:10035000024641464846BDE8F08B13B54FF0000019
:100360004FF00001AFF30080BDE81C407047000073
:100370000FB41CB50C0007AA009001D02044401E09
:10038000074B7B4469460190069800F0F8FA002C70
:1003900003D06946002000F005FB1CBC5DF814FB8F
:1003A0002906000070B5044685690068C10601D5BC
:1003B000302600E02026C00707D070BDD4E9012117
:1003C00030469047206A401C20626D1EF6D570BDF5
:1003D00070B5044685690078C00707D170BDD4E9BF
:1003E000012120209047206A401C20626D1EF6D516
:1003F00070BD2DE9F0474FF0000A89460446C0F869
:1004000020A02046E1688847002876D0252806D01D
:10041000D4E901219047206A401C2062F1E7E1689D
:10042000204600258847C4F81CA006460027C4F8CB
:1004300018A02A2E09D0304603F0F1FA38B304EBA5
:100440008708303EC8F8186019E059F8041B2046A8
:1004500004EB87029161E1688847012F064618D1B5
:10046000E069002820DA25F020051DE0D8F8180002
:1004700000EB800006EB40003038C8F8180020463A
:10048000E1688847064603F0CAFA0028EED1012F3A
:100490000AD02E2E08D12046E16888477F1C0646E8
:1004A000022F45F02005C4DBA069002803DA404292
:1004B00045F00105A061E80701D025F01005B6B1AF
:1004C000A6F14100192802D8203645F400654A46B5
:1004D0003146204625604D46FFF790FE58B1012871
:1004E00006D0ED1D25F0070000F1080989E704E0BA
:1004F00005F1040985E730468AE7206ABDE8F08700
:100500004FF0000200B5134694469646203922BFAC
:10051000A0E80C50A0E80C50B1F12001BFF4F7AFF7
:10052000090728BFA0E80C5048BF0CC05DF804EBD9
:10053000890028BF40F8042B08BF704748BF20F847
:10054000022B11F0804F18BF00F8012B7047704745
:100550007047704770472DE9FF4F0C461E464FF01D
:10056000FF378BB0D2E90001DDF860800A908A463F
:10057000C1F30A5505B93D46002108464FF0000079
:10058000BAF1000F00F4400005DA00EB80004FF4F0
:10059000400101EA50004FEA9059B9F1010F00DD26
:1005A000B9460A9850EA4A000ED044F61050A5F217
:1005B000FF3545432F14B8F1000F1ED07542291E98
:1005C0001EDDC9F100021CE0B8F1010F4FF0000080
:1005D00001D0302103E0F24305E02154401CB04239
:1005E000FBDB30460022002121540B99C1F8088022
:1005F000C1E900200FB0BDE8F08FBD1B6D1CDEE728
:100600004A4600DA694206A800F064FA06AB93E8AD
:10061000070003AB83E8070050460A9900F045FB4A
:100620008DE80700A0F500501F3800900398002DBA
:100630000ADD42F21F014A460844002303A9039041
:10064000684600F0AEFD09E0A0F500504A461F38AC
:10065000002303A90390684600F0B8FD8DE8070069
:100660000004000C03D04FF0FF30410800E01046BA
:10067000B8F1000F03D00022009215461EE0751E4F
:1006800005D400F0A1F9303262556D1EF9D5B3469C
:100690000122084302D000227F1C04E02078302889
:1006A00001D100227F1E002A099784D01DE0112D60
:1006B00007DA00F089F9303262556D1C50EA010208
:1006C000F5D1084302D00098C8B10EE00021681EA1
:1006D00005E0235C625C63542254401E491C814245
:1006E000F7DBAB46A81B401E0990002004F80B0066
:1006F0000B98099AC0F80880C0E9002B7AE7112608
:100700004FF0000857E72DE9F04F88460446D21D08
:1007100022F0070191B0D1E90001CDE90A0103F00F
:1007200056F902460B98C00F01D02D2007E0206833
:10073000810701D52B2002E0202101EAC000032A15
:10074000099001D0072A05DB03464146204600F008
:1007500081F90BE12078800601D5E06900E00620F0
:10076000B8F1650F814606D0B8F1660F18D0B8F120
:10077000670F70D131E00020B9F1110F009001DB5B
:10078000112301E009F101030AAA01A90CA8FFF74E
:10079000E2FEDDE90C70002609F10105834647E021
:1007A00001204B4600904FF000470AAA01A90CA86F
:1007B000FFF7D1FEDDE90DB00C995D46002610B9BA
:1007C00009F101000D18B9EB050003D4C0F1FF36A3
:1007D00009F10105A5EB09002BE0B9F1010F01DAE0
:1007E0004FF001090020B9F1110F0090484601DDDA
:1007F000112300E003460AAA01A90CA8FFF7ABFEEB
:10080000DDE90C704D4600268346207800070AD4A7
:10081000AB4500DA5D4601A8012D04DD411911F850
:10082000011C302907D04F4502DA17F1040F04DA12
:10083000012082460FE06D1EEEE7002F02DCED1B6B
:100840003E4403E0781CA84200DD7D1CB81B00F18B
:10085000010A4FF000472078000703D4AA4501DBC6
:100860004FF0FF3A0021B7F1004F0DF143088DF82A
:10087000431024D002202B23002F01DA7F422D23A6
:100880000A21021EA0F1010000DC5FB197FBF1FC20
:1008900097FBF1F201FB1C7C17460CF1300C08F8B9
:1008A00001CDEEE7A8F1010003702188090501D50B
:1008B000452100E06521A0F1010800F8011C09981C
:1008C0000FA9A1EB0807FF1D00B10120411901EBA1
:1008D000EA70A1693844081A401EA0612078C00659
:1008E00002D42046FFF75EFD099828B1D4E9012122
:1008F0009047206A401C20622078C00622D52046FE
:10090000FFF750FD1EE0002E04DBB34502DD01A819
:10091000805D00E03020D4E901219047206A401C2E
:100920002062761CAAF101005FEA000A0AD100F0F9
:1009300047F8C0680168405CD4E901219047206A0B
:10094000401C2062281EA5F10105DCDC07E0D4E98B
:10095000012118F8010B9047206A401C2062381EC4
:10096000A7F10107F3DC2046FFF732FD032011B0A9
:1009700041E6000001694A1C02610878704700B531
:100980008FB0CDE901310021059105497944CDE9C8
:10099000031011466846FFF72CFD0FB000BD0000A4
:1009A000E5FFFFFF0A6802F8010B0A607047D1E912
:1009B00000239A4202D2531C0B6010707047000053
:1009C000004870471C06002030B5B0F10A024FEA1B
:1009D000900E71F100034EEA817EB0EB0E0061EBE8
:1009E00091014FEA101E4EEA017E10EB0E0041EB22
:1009F00011114FEA102E4EEA016E10EB0E0041EB82
:100A000011214FEA104E4EEA014E10EB0E0041EB61
:100A10001141401841F100014FEAD00040EA417015
:100A20004FEAD10110EB80054FEA810444EA90744B
:100A300044EB01046D1944EB0404521BA3414FF035
:100A4000000348BF0A3200D530BD401C41F100010F
:100A500030BD00002DE9F0411F4604460326016821
:100A6000072A01F4006004DB08B116A505E016A50D
:100A700003E008B115A500E015A521F010002060E5
:100A8000A069C01EA0610FB1401EA0612046FFF703
:100A900089FC4FB1D4E9012138469047206A401CB7
:100AA0002062C01C206206E0206AFAE7D4E9012136
:100AB00015F8010B9047761EF8D22046FFF788FC08
:100AC000BDE8F0814E414E006E616E00494E460019
:100AD000696E66002DE9F047814616468AB03548B2
:100AE00078440DC88DE80D0032487844801C03AC72
:100AF0000DC884E80D0041F69B300844372190FB77
:100B0000F1F290FBF1F5A5F1800501FB12041B3C0D
:100B100002D56442012000E00020DFF898A0804662
:100B20000027FA44AAF1BE0A0EE0E0070AD03246D6
:100B3000684607EB470101230AEB810100F046FB01
:100B40008DE8070064107F1C002CEED1194F7F4404
:100B5000AE3F19E0E80715D007EB04100DF1180AB5
:100B600090E80E008AE80E00C068F04201D19819A2
:100B700008903246012306A903A800F027FB03AB27
:100B800083E807006D10641C002DE3D14FF00103D2
:100B900032466946B8F1000F03A802D000F001FB0D
:100BA00001E000F013FBC9E90001C9F808200AB010
:100BB000BDE8F087DC36000000487047FC050020E7
:100BC0007546FFF7F9FFAE4605006946534620F02B
:100BD0000700854618B020B5FFF740FBBDE8204070
:100BE0004FF000064FF000074FF000084FF0000BE9
:100BF00021F00701AC46ACE8C009ACE8C009ACE89C
:100C0000C009ACE8C0098D46704710B50446AFF383
:100C100000802046BDE81040FFF70CBB4FF0013CC0
:100C200050F8042B51F8043B9A4221D1A2EB0C035B
:100C3000934313EACC1317D150F8042B51F8043B1B
:100C40009A4215D1A2EB0C03934313EACC130BD1B8
:100C500050F8042B51F8043B9A4209D1A2EB0C0343
:100C6000934313EACC13DBD04FF00000704700BF72
:100C7000D01A01BAB1FA81F101F0180122FA01F09B
:100C8000CB40C1F12001DBB2C0B2C01A2CFA01F393
:100C9000D11A914311EAC311E6D1704701491820D6
:100CA000ABBEFEE72600020070475FEA400C08BFBB
:100CB00091F0000F4FEA8C234FEAC12243EA5151D1
:100CC0004FEA1C5018BF00F5F0404FEA300018BF43
:100CD00041F000415FEA6C5C00F02980BCF1FF3F0D
:100CE00008BF40F080407047130C06BF12044FF05D
:100CF000100C4FF0000C130E04BF12020CF1080C84
:100D0000130F04BF12010CF1040C930F04BF9200E7
:100D10000CF1020CD30F04BF52000CF1010C114670
:100D20004FF00002A0F11F00A0EB0C00704711F083
:100D3000004F08BF704731F000413FF4D5AF0B0CB6
:100D400006BF09044FF0100C4FF0000C0B0E04BF4F
:100D500009020CF1080C0B0F04BF09010CF1040C83
:100D60008B0F04BF89000CF1020CCB0F04BF4900AC
:100D70000CF1010CCCF12003A0EB0C0022FA03F3E0
:100D800002FA0CF241EA030100F10100704720F081
:100D90007F4C80EA030023F07F47ACEB070303F5A9
:100DA0007C5300F0004003F1FF032DE980494FEA36
:100DB000154B09B44FEA144325EA0B4E24EA0348C5
:100DC0000FF2042606EB132749083E785FEA320249
:100DD00003FB0667C7F5000707FB06F64FEA543723
:100DE0004FEAD64606F1020607FB066CCCF1005C22
:100DF0004FEA1C472CEA074C07FB06F40CFB06F5F0
:100E000004EB15464FEA961634BF00204FF0004021
:100E10004FEAD13706FB07FC4FEA1C4C0CFB0BF7E3
:100E2000D21B03FB0CF761EB07010CFB0EF7B0EBD9
:100E3000074072EB17420CFB08F734BFA2EB0742E6
:100E4000B2EB074261EB17414FEA0C444FEA9107BE
:100E500006FB07FC4FEA1C4C0CFB0BF7B0EBC74042
:100E600072EB573203FB0CF734BFA2EBC742B2EB75
:100E7000C74261EB57310CFB0EF7B0EBC70072EBCA
:100E800057720CFB08F734BFA2EBC702B2EBC702E4
:100E900061EB5771039F4FEA816141EA921104EBC4
:100EA000CC044FEAD1374FEA826206FB07FC42EAE4
:100EB00090124FEA80604FEA1C4C0CFB0BF7D21BE0
:100EC00003FB0CF761EB07010CFB0EF7B0EB0740DF
:100ED00072EB17420CFB08F734BFA2EB0742B2EBF0
:100EE000074261EB17414FEA8C554FEA910704EB3B
:100EF0009C2406FB07FC4FEA1C4C0CFB0BF7B0EBE9
:100F0000C74072EB573203FB0CF734BFA2EBC7426A
:100F1000B2EBC74261EB57310CFB0EF7B0EBC700E9
:100F200072EB57720CFB08F734BFA2EBC702B2EBAF
:100F3000C70261EB577115EB4C254FEA816141EA1D
:100F400092114FEA82624FEAD13742EA901206FBD1
:100F500007FC44F100044FEA80604FEA1C4C0CFB94
:100F60000BF7D21B03FB0CF761EB07010CFB0EF731
:100F7000B0EB074072EB17420CFB08F734BFA2EB53
:100F80000742B2EB074261EB174115EB1C154FEA24
:100F9000813141EA92414FEA823242EA90424FEA7D
:100FA00080304FEA0C7644F1000448EA03434EEAED
:100FB0000B484FF0000EB2EB080C71EB030724BF97
:100FC000624639464EEB0E0E4FF0000B00185241B0
:100FD00049414BEB0B0BB2EB080C71EB03077BF1B8
:100FE000000B24BF624639464EEB0E0E4FF0000B4D
:100FF0000018524149414BEB0B0BB2EB080C71EB63
:1010000003077BF1000B24BF624639464EEB0E0E00
:1010100051EA020718BF46F0010616EB0E7655F1AD
:10102000000254F1000103D5BDE88901BDE8008844
:10103000BDE88901BDE80048B619524141EB010104
:10104000A3F10103704780807F7E7D7C7B7A797875
:10105000777676757473727171706F6E6E6D6C6C7D
:101060006B6A6A696868676666656464636362611F
:101070006160605F5F5E5E5D5D5C5C5B5B5A5A59A0
:10108000595858575756565555555454535352520C
:101090005251515050504F4F4F4E4E4D4D4D4C4C64
:1010A0004C4B4B4B4A4A4A494949484848474747AD
:1010B00047464646454545444444444343434342EA
:1010C000424242414141002B9C4630D477002BD014
:1010D0001CB54FEA370703B44FF010004FF0100172
:1010E000BAF1000F06D0BCF1000FDCBF40F00800E1
:1010F00040F008014FF000000FBCBDE810400BF1BC
:10110000010BBBF1010F08BF5FEA170722BF12F105
:10111000010211F101014FF0004143F1000300F021
:10112000004043EA00007047F9D35708D0E746EA89
:10113000064613F1400F4FEA16461FDD13F1200F4C
:10114000DFBF16430A46002120335B42BED0C3F105
:10115000200746EA064602FA07F74FEA164646EA2D
:101160000706C3F1200722FA03F201FA07F721FA72
:1011700003F14FF0000342EA0702A7E746EA02063E
:1011800046EA06464FEA164646EA0106BCBF46EA6C
:101190000646360C4FF000034FF000024FF00001FE
:1011A00094E72DE9804C9A46934670B491E8380054
:1011B00007C831EA400C48BF34EA430C03D5FFF7B7
:1011C000E6FDFFF780FFF0BCBDE8008C2DE9804C08
:1011D0009A46934670B491E8380007C810F0804FE3
:1011E00008BF13F0804F03D100F005F8FFF76BFF45
:1011F000F0BCBDE8008C20F07F4780EA030023F0BC
:101200007F4C07EB0C03A3F57C5300F00040A3F1E7
:10121000FE0392F0000F00F0B38095F0000F00F095
:1012200077802DE901494FEA11404FEA144621EA3F
:10123000004800FB06FC24EA064708FB06F607FB0D
:1012400008F800FB07F718EB06484CEB164C4FEA82
:10125000124B18EB07484FEA15464CEB174022EAB1
:101260000B4E0BFB06FC25EA06470EFB06F607FBBA
:101270000EFE0BFB07F71EEB064E4CEB164C4FF029
:1012800000061EEB074E4CEB174B18EB0B0840F11A
:10129000000018EB0E0B58EB000840F100008F1A0D
:1012A0004FF000013CBFC943661B14BFB5EB040CF3
:1012B00000213CBFC943F61B4FEA17444EEA8E0E8D
:1012C00027EA04454FEA1C4704FB07622CEA074C57
:1012D00005FB07F70CFB05F604FB0CFC16EB0746B9
:1012E00042EB174216EB0C4642EB1C421BEB060688
:1012F00058EB0202414146EA9E0601D5BDE801894C
:10130000B619524141EB0101A3F10103BDE8018986
:101310004FEA14454FEA114724EA054621EA074CF3
:1013200005FB07F406FB07F70CFB06F105FB0CFCBD
:1013300011EB074144EB17444FEA124711EB0C4104
:1013400044EB1C4422EA074C05FB07F206FB07F7B7
:101350000CFB06F605FB0CFC16EB074642EB1742AE
:1013600016EB0C4642EB1C456A1854F1000148BFCD
:101370007047B619524141EB0101A3F101037047D7
:1013800095F0000F37D04FEA11424FEA144721EA97
:10139000024624EA074C02FB07F106FB07F70CFBA9
:1013A00006F402FB0CFC14EB074441EB17414FEA37
:1013B000154714EB0C4441EB1C4125EA074C02FB9A
:1013C00007F506FB07F70CFB06F602FB0CFC16EB19
:1013D000074645EB174516EB0C4645EB1C42121928
:1013E00051F1000148BF7047B619524141EB01016C
:1013F000A3F1010370474FEA14454FEA114724EA6D
:10140000054621EA074C05FB07F106FB07F70CFB35
:1014100006F24FF0000605FB0CFC12EB074241EB15
:10142000174112EB0C4251EB1C4148BF7047921818
:1014300041EB0101A3F10103704700002DE9F05FCA
:10144000484EDFF81C91DFF824A132884348DFF8CA
:1014500018B149F822004AF822B0521C3280DFF855
:10146000108141F61E42C0E9022842F21173036165
:101470000024C0E9004806238461C0E90743092528
:1014800044620575457501278775C775C0F88040AA
:10149000C0F88440C0F888405946C0F88C40C0F875
:1014A0009040086884620868C262CA600A6840F2B4
:1014B000F310D063086840F60F62026401215846B9
:1014C00001F091F831882B482B4A49F821004AF85D
:1014D0002120491C31808461C46142F20F71046291
:1014E00000F108094E1C446289E8C20041F61F431E
:1014F000C0E90038057545758575C575C0F8844027
:10150000C0F88840C0F88C40C0F890401B4CC0F830
:101510008040106883621068C162D160012110466A
:1015200001F061F802F01EFA4FEA0B0494F83D0056
:101530000228FBD008210C4801F0F6F994F83D0090
:101540000228FBD00C21084801F0EEF90A4800F00F
:101550009BFEBDE8F05F084800F096BEB002002098
:101560008802002012000020C40000209C020020FD
:1015700000A24A04440300209C010020B932000864
:101580000F4948690F4A80B220F0300040F0100047
:10159000108048610C480D49B0F9100008820C49D0
:1015A0000A6A90420AD00862002807DB09490968E4
:1015B000CA6A50436422B0FBF2F0C863704700006F
:1015C00000000240100000201041000870020020BE
:1015D000B0020020C4000020FEE7704772B6FEE7AC
:1015E0002DE9F0410446876D00F054F9064694F861
:1015F00035000025022806D08020606584F834502C
:101600000120BDE8F0812068016821F01601016029
:101610002068416921F080014161206C08B9A06C0B
:1016200020B12068016821F008010160206801688C
:1016300021F0010101600CE000F02CF9801B05286D
:1016400007D920206065032084F8350084F83450E1
:10165000D7E720680068C007EED194F85C103F20FF
:101660008840B860012084F8350084F834500020A8
:10167000C7E790F83510022903D080214165012089
:101680007047052180F835100068016821F00101DC
:1016900001600020704700002DE9F84FDFF8BCA181
:1016A000002201250AF1040B03264FF00F090BF16C
:1016B000040E00BF0B6805FA02F42340A34270D168
:1016C0000F7907F00307012F01D0022F16D1876889
:1016D0004FEA420806FA08FC27EA0C07D1F80CC0CA
:1016E0000CFA08FC4CEA070CC0F808C04768A7438E
:1016F0000C79C4F3001494403C4344600C79E443F7
:10170000A4070AD0C4684FEA420C06FA0CF7BC439F
:101710008F6807FA0CF72743C7600C7904F00304BD
:10172000022C12D1D40800EB840CDCF820405707BF
:10173000FF0E09FA07F824EA0804D1F8108008FA25
:1017400007F848EA0408CCF8208004684FEA420C05
:1017500006FA0CF7BC430F7907F0030707FA0CF7FA
:10176000274307604C6814F4403F70D03C4C276816
:1017700047F480472760246822F0030704F480447C
:101780000094384C07EB040CDCF8084897074FEA44
:10179000177809FA08F7BC43334FB84202D1002743
:1017A00024E054E0314FB84201D101271EE0304F10
:1017B000B84201D1022719E02E4FB84201D10327C8
:1017C00014E02D4FB84201D104270FE02B4FB8424F
:1017D00001D105270AE02A4FB84201D1062705E0CA
:1017E000284FB84201D1072700E0082707FA08F779
:1017F0002743CCF80878DAF800405746D1F804C0FF
:101800009C435FEACC3C00D51C433C60DBF80040C5
:101810005F46D1F804C09C435FEA8C3C00D51C4372
:101820003C60DEF800407746D1F804C09C435FEA94
:10183000CC2C00D51C433C60084F0C373C68D1F8D9
:1018400004C09C435FEA8C2C00D51C433C60521CB6
:10185000102AFFF42FAFBDE8F88F0000003C0140D4
:1018600044380240003001400000024000040240C1
:1018700000080240000C0240001002400014024028
:1018800000180240001C02400AB18161704709043F
:10189000FBE700000148806870470000000000205E
:1018A00070B5040025D094F83D00002520B984F8D7
:1018B0003C50204600F0B8F8242084F83D00206811
:1018C000016821F0010101602068016841F40041D4
:1018D00001602068016821F40041016000F00CFA09
:1018E0004D4A6168914201D84C4900E04C49884218
:1018F00001D2012070BD4B492368B0FBF1F15E6855
:1019000026F03F060E435E606368934206D94FF4AB
:10191000967359434FF47A73B1FBF3F12368491C72
:101920001E6A26F03F06314319626168914210D861
:101930004900401EB0FBF1F2521CC2F30B02042A14
:1019400001D2042022E0B0FBF1F0401CC0F30B00F8
:101950001CE0A268F2B301EBC10303EB0116431EC6
:10196000B3FBF6F35B1C43F480431B0549D092B3F1
:1019700001EBC10202EB0111401EB0FBF1F0401C73
:10198000C0F30B0040F4804040F400402168CA6975
:101990004CF6FF739A431043C861D4E90710014322
:1019A0002068026822F0C00211430160D4E90301FB
:1019B00001432068826848F2FF339A4311438160F3
:1019C000D4E9050108432168CA6822F0FF021043E8
:1019D000C86001E00EE016E02068016841F00101F6
:1019E00001602564202084F83D00256384F83E5082
:1019F000002070BD01EB4106431EB3FBF6F35B1CF8
:101A0000B3E70120C2E701EB4101401EB0FBF1F05A
:101A1000401CC0F30B00B7E7A086010080841E00C5
:101A200000093D0040420F0010B586B00446142165
:101A30006846FEF765FD13492068884220D11248A8
:101A40000021026842F002020260006800F0020019
:101A50000590C02000901220CDE9010103200390E1
:101A60000420049069460948FFF716FE0648103026
:101A7000016841F400110160006800F40010059055
:101A800006B010BD0054004030380240000402404F
:101A9000024881680278114481607047000000208C
:101AA0000B4810B5016841F400710160016841F410
:101AB00080610160016841F480710160032000F0E1
:101AC0006FF80F2000F006F800F024F8002010BD99
:101AD000003C024070B50D4D04464FF47A712878F1
:101AE000B1FBF0F00A490968B1FBF0F000F00CFB23
:101AF00048B9102C07D200222146501E00F030F8C1
:101B000000206C6070BD012070BD0000000000204E
:101B10000C0000200A4808B5016841F480410160CA
:101B2000006800F4804000900548001F016841F003
:101B300080510160006800F08050009008BD0000F6
:101B400044380240002809DB00F01F0201219140C7
:101B50004009800000F1E020C0F80011704700004B
:101B6000F0B40E4B1B680C46C3F30223C3F1070508
:101B7000042D00D90425191D072901D2002300E0F6
:101B8000DB1E012606FA05F1491E214099409E40C0
:101B9000761E16403143F0BC01F031BF0CED00E081
:101BA000064900F0070208684FF6FF03184040EAB4
:101BB0000220034A10430860704700000CED00E06B
:101BC0000000FA052DE9F0470E46050065D0DFF864
:101BD0001481D8F80000F7B200F00700B04207D235
:101BE00088F80070D8F8000000F00700B04254D127
:101BF00028683D4C810712D5400703D5206840F482
:101C0000E05020602878000703D5206840F4604049
:101C100020602068A96820F0F00008432060287840
:101C2000C0072DD0304968680839012812D0022831
:101C300013D0032811D00968890700292DDA2168FB
:101C400021F0030101432160FFF724FE814641F2A8
:101C5000883A0EE009688903EFE709688901ECE733
:101C6000FFF718FEA0EB0901514502D90320BDE89A
:101C7000F0872068696800F00C00B0EB810FEFD1AD
:101C8000D8F80010404601F00701B14207D90770AB
:101C9000006800F00700B04201D00120E7E7287893
:101CA000400705D52068E96820F4E050084320602B
:101CB0002878000706D52068296920F4604040EAAA
:101CC000C100206000F038F82168084AC1F3031110
:101CD000515CC8400649086006480068FFF7FAFEF4
:101CE0000020C4E7003C024008380240F2400008EF
:101CF0000C00002004000020044805490068096821
:101D0000044AC1F38221515CC84070470C00002096
:101D10000838024002410008044805490068096883
:101D2000044AC1F34231515CC84070470C000020A6
:101D30000838024002410008154810B5006810F04C
:101D40000C02144813D01449042A0FD0082A0ED1CB
:101D50000F4C241F2268236802F03F025B0207D564
:101D60002068C0F38810A0FB010106E0084610BD02
:101D70002168C1F38811A1FB00010023FEF780FA5E
:101D80002168C1F30141491C4900B0FBF1F010BDCD
:101D9000083802400024F40040787D012DE9F84F16
:101DA00004006ED02078DFF84C93C007A9F1040539
:101DB0004AD009F104000168C1F38101012908D06A
:101DC0000068C0F3810002280AD1D9F8000040025F
:101DD00006D52868800337D560680028E1D033E055
:101DE0006068B0F5803F10D0B0F5A02F286810D003
:101DF00020F480302860286820F480202860606803
:101E0000A8B1FFF747FD06460DE0286840F4803092
:101E1000F4E740F480202860F7E700BFFFF73AFDC1
:101E2000801B642873D828688003F7D50CE0FFF77F
:101E300031FD064605E000BFFFF72CFD801B64283E
:101E4000F0D828688003F7D42078DFF8AC828007C8
:101E50004FF0000A3ED5A748001D016811F00C0F95
:101E600008D00068C0F3810002280BD1D9F8000027
:101E7000400207D42868800716D5E068012800D101
:101E800012E033E1E068B8B10120C8F80000FFF7C4
:101E900001FD064605E000BFFFF7FCFC801B0228A1
:101EA000C0D828688007F7D52868216920F0F80095
:101EB00040EAC10028600DE0C8F800A0FFF7EAFC86
:101EC000064604E0FFF7E6FC801B02281FD82868BE
:101ED0008007F7D42078000722D5864F87486169AC
:101EE000703771B101210160FFF7D4FC064604E0B0
:101EF000FFF7D0FC801B022809D838688007F7D587
:101F00000EE0C0F800A0FFF7C5FC064605E082E041
:101F1000FFF7C0FC801B02287DD838688007F7D403
:101F20002078400768D5DFF8CCB100270BF13C0BD7
:101F3000DBF80000C0000BD4DBF8001041F080514A
:101F4000CBF80010DBF80000012700F08050009073
:101F50006B4E3068C00510D4306840F4807030603B
:101F6000FFF798FC009005E0FFF794FC0099401AF9
:101F7000022850D83068C005F6D55E4EA0686C3691
:101F800001280FD00528306810D020F00100306003
:101F9000306820F004003060A068B8B1FFF77AFC28
:101FA00000900FE0306840F00100F4E740F00400DA
:101FB0003060F7E7FFF76EFC0099411A41F2883074
:101FC000814266D830688007F4D50EE0FFF762FCE6
:101FD000009007E0FFF75EFC0099411A41F288305B
:101FE000814256D830688007F4D42FB1DBF8001056
:101FF00021F08051CBF80010A069C8B33D49091DFC
:102000000968C1F3810102294AD00228504607D04D
:10201000C8F8600000E03CE0FFF73CFC04463BE011
:102020004746C8F86000FFF735FC064605E000BFEC
:10203000FFF730FC801B02282BD828688001F7D4DA
:10204000D4E907010843A16A2E4A490802EB01417D
:10205000626A41EA8211084394F82C1040EA016157
:10206000C9F8001001203866FFF714FC044606E0AA
:102070003EE000BFFFF70EFC001B022809D82868CD
:102080008001F7D534E000BFFFF704FC001B0228F5
:1020900002D90320BDE8F88F28688001F4D427E036
:1020A0000128F7D0D9F80000E26900F480019142DC
:1020B0001CD1226A00F03F01914217D147F6C0714E
:1020C000626A0140B1EB821F10D1A26A4FF0FF3368
:1020D00000F4403103EB5202B1EB024F06D194F809
:1020E0002C1000F07060B0EB016F01D00120D1E73F
:1020F0000020CFE70438024000004742800E4742EC
:10210000007000400000FFFF10B5401EB0F1807F5E
:1021100001D3012010BD4FF0E02460610F21601752
:1021200001F06DFC0020A06107202061002010BD9F
:102130007047704770B590F83C20012A32D00124D6
:1021400080F83C40022280F83D2003685A689D6870
:1021500022F070060A6832435A60134B02689A42B2
:1021600014D0B2F1804F11D0104B9A420ED0104BC8
:102170009A420BD00F4B9A4208D00F4B9A4205D08F
:102180000E4B9A4202D00E4B9A4204D1496825F078
:1021900080031943916080F83D40002180F83C1095
:1021A000084670BD022070BD0000014000040040E0
:1021B00000080040000C00400004014000400140C5
:1021C0000018004010B5040003D094F83D0010B191
:1021D00007E0012010BD002084F83C00204600F0FC
:1021E0001FF8022084F83D00211D206801F0C8F886
:1021F000012084F8460084F83E0084F83F0084F80B
:10220000400084F8410084F8420084F8430084F8D8
:10221000440084F8450084F83D00002010BD000013
:1022200008B50068154988420FD11548016841F08A
:10223000080101600068002200F0080000900221FF
:102240003220FFF78DFC322012E00E49884213D174
:102250000B48001D016841F48031016000680022D4
:1022600000F48030009011461820FFF779FC182008
:10227000BDE80840FFF766BC08BD0000000C004048
:10228000403802400040014090F83D10012901D043
:1022900001207047022180F83D100168CA6842F0B1
:1022A0000102CA6000681149884214D0B0F1804F21
:1022B00011D00F4988420ED00E4988420BD00E49EA
:1022C000884208D00D49884205D00D49884202D085
:1022D0000C49884204D1816801F00701062903D026
:1022E000016841F0010101600020704700000140D9
:1022F0000004004000080040000C004000040140C1
:10230000004001400018004070B5044690F83C00C1
:102310000025012817D0012684F83C60022084F8AB
:102320003D002068826822F0770222F47F428260BA
:102330000868502838D00DDC20284FD005DC90B339
:10234000102811D14AE0022070BD302846D0402824
:102350000AD13BE060282FD070280DD0B0F5805F07
:1023600003D0B0F5005F12D0012584F83D60002055
:1023700084F83C00284670BDCB68D1E90121206873
:1023800001F06FF82068816841F0770109E0CB68BF
:10239000D1E90121206801F064F82068816841F4E6
:1023A00080418160E1E719E0CA684968206801F06E
:1023B0004BF95021206806E0CA684968206801F09E
:1023C00054F96021206801F056F8CEE7CA684968E0
:1023D000206801F039F940212068F4E722680146BD
:1023E0001046F0E72DE9F0410D46040003D094F8C3
:1023F0003D0018B108E00120BDE8F081002084F81C
:102400003C00204600F040F8022084F83D0020689F
:10241000816844F2070291438160211D206800F029
:10242000AFFF226890689169166A2B68AF69034311
:1024300040F20330814341EA0721A868EF6908436D
:102440004FF6FC418843E96840EA072001432869C8
:102450002F6A000140EA0730084369686D6926F079
:10246000AA0646EA0515294393602268906154F84C
:10247000460B0162012004F81F09E0752076E07622
:102480002077A0750020B7E710B586B00446142168
:102490006846FEF735F822682A4C00212A480223B4
:1024A000A24224D1284A1432146844F00104146072
:1024B000126802F001020592026842F01002026006
:1024C000006800F0100005904FF420600090CDE906
:1024D00001310120CDE9031069461C48FFF7DCF803
:1024E000002211461820FFF73BFB182025E0184C6E
:1024F000A24224D1144A1032146844F00404146037
:10250000126802F004020592026842F008020260BA
:10251000006800F0080005904FF440500090CDE9AD
:102520000131CDE9031369460A48FFF7B5F80022E7
:1025300011461E20FFF714FB1E20FFF703FB06B019
:1025400010BD000000000140303802400010024081
:1025500000080040000C024070B590F83E60044650
:1025600090F83F5090F8423090F84320022021B17B
:1025700004290ED0012E1BD114E0012E18D1012BFD
:1025800016D184F83E0084F8420001220021206820
:1025900020E0012D0CD1012A0AD184F83F0084F8F3
:1025A000430014E0012D03D1012B01D1012A01D0F8
:1025B000012070BD84F83E0084F83F0084F842009A
:1025C00084F8430001220021206800F03DFF012231
:1025D0000421206800F038FF2068016841F0010103
:1025E0000160002070BD90F83C20012A0CD001222F
:1025F00000F83C2F0223437050F83C3C5961427074
:10260000002101700846704702207047704770B57E
:102610000446006801694FF00005C943890715D4D5
:10262000C168C943890711D4E91E016101202077DF
:10263000206880698007204602D0FFF7E7FF04E0AA
:1026400000F0C0F8204600F06DF925772068016998
:10265000C943490717D4C168C943490713D46FF068
:1026600004010161022020772068806910F4407F16
:10267000204602D0FFF7CAFF04E000F0A3F820468E
:1026800000F050F9257720680169C943090716D47D
:10269000C168C943090712D46FF008010161042021
:1026A00020772068C0698007204602D0FFF7AEFF80
:1026B00004E000F087F8204600F034F92577206820
:1026C0000169C943C90617D4C168C943C90613D4EF
:1026D0006FF010010161082020772068C06910F4B4
:1026E000407F204602D0FFF791FF04E000F06AF837
:1026F000204600F017F9257720680169C943C9070A
:1027000008D1C168C943C90704D1891E01612046A7
:1027100000F06EF920680169C943090609D4C1684F
:10272000C943090605D46FF0800101612046FFF717
:10273000FFFC20680169C943490609D4C168C9433F
:10274000490605D46FF040010161204600F052F9BE
:1027500020680169C94389060BD4C168C943890649
:1027600007D46FF0200101612046BDE87040FFF7FB
:10277000E0BC70BD10B586B0044614216846FDF774
:10278000BFFE2068B0F1804F15D10C4800210268CF
:1027900042F001020260006800F0010005900C2088
:1027A00000900220CDE901010120CDE90310694626
:1027B0000348FEF771FF06B010BD0000303802403C
:1027C00000000240704770B5044690F83C000026B7
:1027D0000D4601280FD0012084F83C006AB1042A7C
:1027E0001DD0082A2FD00C2A3FD00126002084F8C3
:1027F0003C00304670BD022070BD206800F044FEF1
:102800002068816941F0080181612068816921F0B7
:1028100004018161206881692A69114311E02068FF
:1028200000F062FE2068816941F4006181612068E6
:10283000816921F480618161206881692A6941EAA6
:1028400002218161D2E7206800F084FE2068C1691E
:1028500041F00801C1612068C16921F00401C16132
:102860002068C1692A69114311E0206800F0A6FEC2
:102870002068C16941F40061C1612068C16921F427
:102880008061C1612068C1692A6941EA0221C16190
:10289000ACE710B5040003D094F83D0010B107E098
:1028A000012010BD002084F83C00204600F01EF8F6
:1028B000022084F83D00211D206800F061FD012008
:1028C00084F8460084F83E0084F83F0084F8400015
:1028D00084F8410084F8420084F8430084F84400FE
:1028E00084F8450084F83D00002010BD08B500685C
:1028F000B0F1804F12D10A48016841F00101016036
:102900000068002200F00100009011461C20FFF733
:1029100027F9BDE808401C20FFF714B908BD0000E6
:10292000403802407047000010B50446022249B109
:1029300004290ED0082913D094F84100012816D09C
:10294000012010BD94F83E000128F9D184F83E2002
:102950000FE094F83F000128F2D184F83F2008E00E
:1029600094F840000128EBD184F8402001E084F87D
:1029700041200122206800F067FD16492068164AB0
:10298000884201D0904203D1436C43F40043436436
:102990002068884213D0B0F1804F10D00F49884290
:1029A0000DD00F4988420AD00E49884207D0904284
:1029B00005D00D49884202D00C49884204D1816873
:1029C00001F00701062903D0016841F0010101600F
:1029D000002010BD00000140000401400004004040
:1029E00000080040000C004000400140001800407A
:1029F00000F00CBE7047704770470000F8B50168E2
:102A000004460868CA684B6910F00F0F4FF00005C4
:102A100059D003F0010602F49077374365D0C1071F
:102A200005D0D10503D5216C41F001012164410796
:102A300005D5D90703D0216C41F00201216481073B
:102A400005D5D90703D0216C41F0040121640107A9
:102A500007D502F02001314303D0216C41F0080179
:102A60002164216C00293AD0800604D5900602D555
:102A7000204600F070FE20684069216CC0F3801091
:102A8000090700D460B3204600F03EFE206840698C
:102A9000400621D52068143050E8001F21F0400185
:102AA00040E80012002AF5D1A06BA8B16C4901657D
:102AB000A06BFEF7DEFD002811D0A06B016D01B008
:102AC000BDE8F040084783060FD593060DD5204694
:102AD000BDE8F84000F03FBE2046FFF78DFFF8BD8F
:102AE0002046FFF789FF2564F8BD266B2023012EC1
:102AF00079D1C60677D5D60675D50868486800909E
:102B00004869400640D5A16B086840680004000C85
:102B1000EAD0A28D8242E7D9E085C869B0F5807F0E
:102B20002DD020680C3050E8001F21F4807140E85F
:102B30000012002AF5D12068143050E8001F21F05F
:102B4000010140E80012002AF5D12068143050E855
:102B5000001F21F0400140E80012002AF5D184F85E
:102B60003E30256320680C3050E8001F21F0100132
:102B700040E80012002AF5D1A06BFEF731FDA08DD0
:102B8000E18D401A81B229E0A08DE18D401A81B219
:102B9000E08D0028A8D00029A6D020680C3050E88D
:102BA000002F22F4907240E80026002EF5D1206814
:102BB000143050E8002F22F0010240E80026002ED9
:102BC000F5D184F83E30256320680C3050E8002FA2
:102BD00022F0100240E80023002BF5D12046FFF739
:102BE0000AFFF8BDFFE705062BD5150629D594F891
:102BF0003D002128F5D1A068B0F5805F01D12069A2
:102C0000B0B1206A411C2162216800784860E08CE4
:102C1000401E0004000CE084E3D12068C16821F06C
:102C20008001C1602068C16841F04001C160D8E7FF
:102C3000206A0088C0F308004860206A801C206277
:102C4000E5E74006CDD55006CBD5CA68204622F030
:102C50004002CA6084F83D3000F0BCF8C1E70000D3
:102C6000F936000870B5040004D094F83D00002542
:102C700010B106E0012070BD84F83C50204600F001
:102C800023F8242084F83D002068C16821F4005115
:102C9000C160204600F0C0FD2068016921F4904128
:102CA00001612068416921F02A0141612068C16801
:102CB00041F40051C1602564202084F83D0084F86F
:102CC0003E00002070BD000070B586B0044614219F
:102CD0006846FDF715FC2A4E226800212948022388
:102CE00003240725B24222D1264A1432166846F040
:102CF00010061660126802F010020592026842F097
:102D000001020260006802AA00F00100059082E85A
:102D100032006002CDE9000369461B48FEF7BCFCA7
:102D2000002201212520FEF71BFF252024E0174E5D
:102D3000B24223D1134A1032166846F400361660A8
:102D4000126802F400320592026842F00802026042
:102D5000006802AA00F00800059082E832006020B6
:102D6000CDE9000369460A48FEF796FC00220121DE
:102D70002620FEF7F5FE2620FEF7E4FE06B070BD25
:102D80000010014030380240000002400044004082
:102D9000000C0240704790F83D30202B18D1A9B1AB
:102DA000A2B190F83C30012B12D001628284C2841F
:102DB00000210164212280F83D2080F83C10006849
:102DC000C16841F08001C160002070470120704758
:102DD0000220704730B5144C002204F10805216828
:102DE00055F82230834202D154F8221003E0521CDD
:102DF00092B2022AF4D3834211D1012081F820003B
:102E000048884A6902444A61CB689A4201D38A6879
:102E10004A6191F821201AB1022081F8210030BDC9
:102E20000A88101A088030BD18000020FEE7000054
:102E30002DE9F04387B014216846FDF761FB2F4868
:102E40000024016841F080010160016801F0800107
:102E50000591016841F001010160016801F0010183
:102E60000591016841F010010160016801F0100155
:102E70000591016841F002010160016801F0020161
:102E80000591016841F00801016000681C4F00F0E5
:102E9000080005900022F0213846FEF7F5FCDFF827
:102EA00064804FF4C066002231464046FEF7ECFCD9
:102EB000DFF85490002206214846FEF7E5FCF0209A
:102EC00000900125CDE90154694638460394FEF788
:102ED000E3FB0096CDE90154694640460394FEF7B2
:102EE000DBFB06200090CDE9015469464846039477
:102EF000FEF7D2FB07B0BDE8F08300003038024097
:102F00000000024000040240000C02400D4810B5D1
:102F10000B4901600C49416000214FF480428160FF
:102F2000C0E9031241618161C1610162FEF7B8FC31
:102F3000002803D0BDE81040FEF750BB10BD0000D4
:102F40000054004028000020801A060010B58CB004
:102F500024216846FDF7D4FA002416480994144940
:102F60000A9401600321C0E901144FF6FF72C0E921
:102F700003244461846100910120CDE90140039460
:102F80000494CDE90540079469460A480894FFF780
:102F900029FA08B1FEF722FB099409A905480A9409
:102FA000FFF7C8F8002801D0FEF718FB0CB010BDE1
:102FB000000001407C00002010B58AB00024079476
:102FC0001C2168460894FDF79BFA1B484FF080418E
:102FD000C0E9001441F61F41C0E902410461846167
:102FE000FFF757FC08B1FEF7F9FA079407A9124852
:102FF0000894FFF79FF808B1FEF7F0FA6020009000
:1030000040F2F310CDE90104082269460A4804940D
:10301000FFF7D9FB08B1FEF7E1FA0C226946064832
:103020000194FFF7D0FB08B1FEF7D8FA0248FFF78A
:10303000A1FB0AB010BD0000C400002010B58CB088
:1030400024216846FDF75CFA0024154809941349C9
:103050000A94C0E900144FF6FF71C0E9024104610F
:1030600084610120CDE90004CDE902040494CDE996
:103070000540079469460A480894FFF7B3F908B178
:10308000FEF7ACFA099409A905480A94FFF752F82B
:10309000002801D0FEF7A2FA0CB010BD00080040D5
:1030A0000C01002010B586B000241748009401944C
:1030B00002940394049413490594016041F61F415E
:1030C000C0E901146321C0E903148461FFF77AF8B1
:1030D00008B1FEF783FA4FF48050009069460A4821
:1030E000FFF712F908B1FEF779FA049404A906482B
:1030F0000594FFF71FF8002801D0FEF76FFA06B01D
:1031000010BD0000000C0040540100201FB500213C
:1031100011480091019102910E4A0391026041F61B
:103120001F42C0E9012142F21072C0E9032181610E
:10313000FFF748F808B1FEF751FA4FF480500090BD
:1031400069460548FFF7E0F8002801D0FEF746FA87
:103150001FBD0000004001409C0100200C4810B53C
:103160000A4901604FF4E1314160002181600C2285
:10317000C160C0E904128161C161FFF773FD0028DD
:1031800003D0BDE81040FEF729BA10BD0010014081
:10319000E40100200C4810B50A4901604FF4E13108
:1031A0004160002181600C22C160C0E9041281618C
:1031B000C161FFF757FD002803D0BDE81040FEF7BE
:1031C0000DBA10BD0044004028020020FEE7FEE7D3
:1031D00070477047FEF75CBC30B593B0302168464D
:1031E000FDF78EF914210CA8FDF78AF91C4800247C
:1031F000016841F080510160006800F0805011903A
:103200001848016841F4804101600068022500F41B
:1032100080401190012003901020049000950695A5
:103220000820CDE907404820CDE9090504200B908E
:103230006846FEF7B3FD08B172B6FEE70F20CDE990
:103240000C054FF48050CDE90E4002210CA81094DB
:10325000FEF7B8FC002801D072B6FEE713B030BD0F
:1032600040380240007000400248016841F470019B
:103270000160704788ED00E010B50448FFF7C7F91A
:10328000BDE810400248FFF7C2B900007C000020F2
:103290009C0100200148FFF7BAB90000C4000020DB
:1032A0000148FFF7B4B900000C0100200148FFF706
:1032B000AEB9000054010020F0B52DED048B8DB0A7
:1032C000274E9FED259B274C706A00F09DFC41EC3A
:1032D000100B9FED251B84ED000B53EC112B00F020
:1032E000E1FD0CD294ED000B53EC102B9FED200B65
:1032F00051EC100B00F00CFE41EC180B01E094EDCA
:10330000008B53EC192B51EC180B00F0CDFCCDE9E0
:1033100002018DED008B184A1F2104A8FDF728F843
:1033200004A800F083FBA06001461F22E28113483D
:1033300000F0ADF9114D0027288818B1A781284663
:1033400000F0F6FA95F8200008B16888A08177624D
:103350000DB0BDEC048BF0BD155001155001653F5B
:103360000000014070020020000000000088C340FF
:1033700000000000E0FFEF4028410008D8050020D1
:10338000F0B50268254C264D264E274F274B4FF0AF
:10339000804CA04209D0604507D0A84205D0B04279
:1033A00003D0B84201D0984204D122F0700E4A688E
:1033B00042EA0E02A0421BD0604519D0A84217D0A5
:1033C000B04215D0B84213D0984211D0184DA8423F
:1033D0000ED0184DA8420BD0174DA84208D0174D5B
:1033E000A84205D0164DA84202D0164DA84203D1DE
:1033F00022F44075CA682A434D6922F080022A43AC
:1034000002608A68C2620A688262A04201D0984261
:1034100001D10969016301214161F0BD0000014052
:103420000004004000080040000C0040000401407F
:1034300000400140004401400048014000180040A5
:10344000001C00400020004010B501F01F030121C6
:10345000046A99408C430462016A9A4011430162F4
:1034600010BD10B5846842EA032224F47F440A4365
:103470002243826010BD826822F070020A4342F04B
:103480000701816070470000F0B5026A22F0010276
:103490000262036A42688469124E24F073050C6864
:1034A0002C4323F002058B682B430D4DA84201D01D
:1034B000B04205D123F00807CB683B4323F0040357
:1034C000A84201D0B04205D14D6922F440721543A3
:1034D0008A692A4342608461496841630362F0BD9E
:1034E0000000014000040140F0B5026A22F0100221
:1034F0000262026A436884690D6824F4E64444EA7F
:1035000005248D6822F0200242EA05120F4D104E6C
:10351000A84201D0B04206D1CF6822F0800242EA30
:10352000071222F04002A84201D0B04207D14D69F3
:1035300023F4406343EA85038D6943EA85034360CE
:103540008461496881630262F0BD000000000140AF
:1035500000040140F0B5026A22F480720262026A3D
:103560004368C46922F4007224F073050C68124E9B
:103570002C438D6842EA05220E4DA84201D0B0428C
:1035800006D1CF6822F4006242EA072222F4806268
:10359000A84201D0B04207D14D6923F4405343EA19
:1035A00005138D6943EA05134360C4614968C1632B
:1035B0000262F0BD000001400004014030B5026A23
:1035C00022F480520262046A4268C3690D6823F4DF
:1035D000E64343EA05238D6824F4005444EA0534A5
:1035E000084DA84202D0084DA84204D14D6922F4EA
:1035F000804242EA85124260C36149680164046204
:1036000030BD0000000001400004014030B40D4C0A
:10361000002104F11405236855F82120824202D1CB
:1036200054F8213003E0491C89B20529F4D38242C1
:1036300005D1D3F88000002801D030BC004730BC51
:10364000704700008802002010B5036A046A24F065
:1036500001040462846924F0F00444EA021423F0B3
:103660000A020A438461026210BD10B5036A23F0A6
:10367000100303628369046A23F4704343EA02324D
:1036800024F0A00343EA01118261016210BDF0B58C
:1036900000231C4617E0D0E90456B54201D1068844
:1036A0009EB911F8017B6E1C06612F70D0E904569B
:1036B0005B1C9BB2B54208D0C668B54201D1856893
:1036C0000561641CA4B29442E5D3012180F8211065
:1036D0000188194489B2018090F82140022C02D15E
:1036E0004488091B0180002180F82110934202D2F6
:1036F0008188491C8180F0BD10B5806B0021C18597
:10370000C184FFF779F910BD01680C3151E8002F31
:1037100022F4907241E80023002BF5D101681431A6
:1037200051E8002F22F0010241E80023002BF5D1DF
:10373000016B012909D101680C3151E8002F22F0F9
:10374000100241E80023002BF5D1202180F83E1023
:1037500000210163704708B590F83E10222901D07E
:10376000022008BD82684FF480539A4201D101695A
:1037700021B1816A9A421BD04AB10AE00268816A8B
:103780005268C2F308020A80816A891C08E0026953
:1037900072B10268526802F07F020A70816A491CA5
:1037A0008162C18D491E0904090CC18503D019E04D
:1037B00002685268F1E70168CA6822F02002CA6014
:1037C0000168CA6822F48072CA6001684A6922F0FE
:1037D00001024A61202180F83E10016B012903D0CB
:1037E000FFF7D8FA002008BD0021016301680C3101
:1037F00051E8002F22F0100241E80023002BF5D100
:1038000001680A68D20602D50A6849680091818D6C
:10381000FFF7F1F8E6E7000070B5044600680169BB
:10382000E26821F44051114301612169A068E26915
:1038300008436169114308432168CA6849F20C636F
:103840009A430243CA6020684169A26921F4407129
:103850001143416131492068884202D03049884291
:1038600002D1FEF759FA01E0FEF746FAE2690023B9
:10387000192164253226B2F5004F626828D0A0FBDA
:103880000101930F9200FCF7FBFC0146B0FBF5F041
:103890006FF01802504301EB800006EB0010B0FB04
:1038A000F5F000F0F002B1FBF5F002EB0012B1FB15
:1038B000F5F06FF01803584301EB800006EB0010A1
:1038C000B0FBF5F000F00F0021681044886070BD77
:1038D000A0FB010192185B41FCF7D2FC0146B0FB52
:1038E000F5F00201B1FBF5F06FF01803584301EB5E
:1038F000800006EBC000B0FBF5F000F0F80002EB32
:103900004002B1FBF5F0584301EB800006EBC0002C
:10391000B0FBF5F000F00700D6E700000010014012
:10392000001401400148FFF769B80000E4010020DD
:1039300090F82010002912D00388002B0FD000210E
:1039400080F8201082894169521A92B2934202D8BB
:1039500043801A4600E042800148FFF71CBA7047D6
:10396000E4010020114800214FF4007201804180E1
:103970008180C280A0F500720346C0E90223026183
:1039800042610B4A82610B4AC261022280F8202008
:1039900080F82110084B1A1F118843F821000833C2
:1039A000064843F82100491C11807047D8050020C3
:1039B0008F3600083139000818000020E40100208B
:1039C0000148FFF71BB8000028020020FEE703B4FF
:1039D00001984100009850EAC12018BF04204A0D08
:1039E00018BF40F0010040F2FF72B2EB515F08BF18
:1039F00040F00200012808BF052002B07047090707
:103A0000090E002804DB00F1E02080F80014704764
:103A100000F00F0000F1E02080F8141D70473038EE
:103A20000A2801D20120704700207047704700002B
:103A3000FEF736F8FFF7D0FBFFF7FAF9FFF786FA43
:103A4000FFF7BAFAFFF7FAFAFFF788FBFFF72AFB4E
:103A5000FFF75CFAFFF79EFBFFF758FB3C21044899
:103A6000FEF77AFDFDF7EAFCFDF78AFDFCE70000B2
:103A70007C00002010B500290AD00878002807D063
:103A800005487844FDF7CAF8002801D0002010BD91
:103A90000248784410BD0000760700006E07000061
:103AA00010B591EA030F48BF83F0004300F138825C
:103AB000841A71EB030C05D2121943EB0C03001BA3
:103AC00061EB0C01DFF824E14FEA1154A4EB135C25
:103AD0001EEA430F18BF9EEA445F73D023EA0E0329
:103AE000DCF1200E21EA045143F4801332D322FA90
:103AF0000CFE10EB0E0023FA0CFE41EB0E01CCF194
:103B0000200E03FA0EFE10EB0E0051F10001B1F58C
:103B1000801FCCF1200E32D201EB045112FA0EF2CA
:103B2000BDE8104058BF7047401C38BF5FEA4202F2
:103B300018BF7047002814BF20F0010041F10001B8
:103B40004FEA410313F5001F38BF7047A1F1C04190
:103B500000F0A2B9012A43EB0302ACF1200CDCF126
:103B60001F0E32BF4FF0000E23FA0CF310EB0300D0
:103B700041EB0451B4EB115FD0D0A1EB045101F53E
:103B8000801149085FEA300001EB04510ED350F177
:103B9000000038BF12FA0EFE08D1BDE81040C9E798
:103BA000401C38BF5FEA4202CAD1C3E7BDE81040FB
:103BB0004FEA410313F5001F38BF7047A1F1C04120
:103BC00000F06AB99EEA445F08D011EA5E0FBDE8D2
:103BD000104004BF01F0004100207047BDE81040D4
:103BE00070B500F00BF900BF64FBBE3E0000E0FFC3
:103BF000491058BFC1F140415B1058BFC3F1404369
:103C00008B42EFF300807047B0FA80F310FA03F1B3
:103C10000AD0C3F11D0303F580634FEA41504FEA18
:103C2000035202EBD12170474FF0000070470000B3
:103C300051EA030C17D41CF5801F58BFBCF5801F38
:103C400000F10680994218BF704708BF9042704744
:103C500007D711F5801F58BF13F5801F19D499425B
:103C60007047894270471CF5801F08D5BCF5801F3E
:103C7000F7D58B4218BF704708BF824270474FF498
:103C8000001C1CEB410F38BF1CEB430F01D28B42D1
:103C9000704770B500F0B2F8922449004FF000511F
:103CA0004FF08053FFF7A4BFDFF848C170B51CEA9E
:103CB000111E1EBF1CEA13159EEA0C0F95EA0C0F8D
:103CC00000F06F8081EA030423EA4C134EEAD47EAD
:103CD00021EA4C1141F4801143F48013AE44A1FB5E
:103CE000024CA0FB0365AEF17F7E361955EB0C0547
:103CF000A1FB034C4CF10003A0FB021C16EB0C06CD
:103D0000654153F10003094218BF46F0010613F460
:103D1000007F0BD14FEA03314FEA0530340341EA0B
:103D2000155140EA16506FF003020AE04FEAC32132
:103D30004FEAC520F40241EA555140EA56506FF06F
:103D4000020202EB2E4201EB025585EACE710AD047
:103D50005FEA440C18BF24F0004450F1000041F128
:103D6000000120EAD47040F2FE7C624500D270BDB2
:103D7000A84214BF4FF080444FF04044002E08BFCB
:103D80000024BEF1806FA8BFA1F1C041BDE8704022
:103D900080F282804FF0000001F1C04101F000414B
:103DA00070479EEA0C0F0CEA131518BF95EA0C0F2A
:103DB00006D04FF0000081EA030E0EF0004170BD06
:103DC00000F01CF88900013E00F007B800F009B8C7
:103DD0004FEA430C5FEA5C5C08D081EA030100F023
:103DE0005BB84FEA410C5FEA5C5CF6D14FF0000033
:103DF000014970470000FF070000F87F0EF1020E36
:103E00002EF0030E5EF8046B364205D4012A43EB14
:103E1000030515F5001F12D8012841EB010C1CF514
:103E2000001F0CD80ED14FEAD17C15F5001F0CEB0A
:103E30004C0C0CF1020C08BF4CEBD37C04E04FF0AF
:103E4000080C01E04FEAD37C0CEB4C0526FA05F692
:103E500006F00706B6F1040C06D20EEB860CBDE8A0
:103E600070404CF0010C6047DFE80CF0090B0202D7
:103E70004FF000414FF00000A1F5002170BD194640
:103E80001046012851EB010418BFD4F5001484BF7B
:103E9000002001F0004170BD0808A0F500114FEAB4
:103EA0003101704753EA010C17D41CF5801F58BF2D
:103EB000BCF5801F00F106808B4218BF704708BF19
:103EC0008242704707D713F5801F58BF11F5801F36
:103ED00019D48B4270479B4270471CF5801F08D550
:103EE000BCF5801FF7D5994218BF704708BF9042B4
:103EF00070474FF4001C1CEB430F38BF1CEB410F05
:103F000001D2994270470FB40CBC03BCFFF7C1BE8D
:103F100010B591EA030F48BF83F000433FF5C8ADE9
:103F2000841A71EB030C07D212198CF0004C43EB8E
:103F30000C03001B61EB0C01DFF8A4E14FEA115404
:103F4000A4EB135C1EEA430F18BF9EEA445F00F027
:103F5000B08023EA6E03524221EA0451C3EB6E03A0
:103F600038BF5B1EDCF1200E25D322FA0CFE10EBCD
:103F70000E0043FA0CFE41EB0E01CCF1200E03FAC9
:103F80000EFE10EB0E0051F10001CCF1200E29D4F1
:103F900012FA0EF201EB0451BDE8104058BF704711
:103FA000401C1CBFB2F1004F704700280CBF491CD9
:103FB00020F00100704712EB020E43EB030218BF22
:103FC0004FF0010E4EEA4202ACF1200CDCF11E0E65
:103FD00054D943FA0CFE10EB0E0051F1FF31CCF135
:103FE0001E0ED5D50EF1010E12FA0EFE404141EB28
:103FF000010101EB445C5FEA5C5C10D910EBDE7000
:1040000001EB045138BFBEF1004FBDE8104018BFAE
:10401000704700280CBF491C20F00100704730D2C7
:104020004FEAD42C11F5001124F400641BD0B1FA2E
:1040300081F20B3AA41AA41ED2F12003914030FA67
:1040400003F31943904001EBCC71002C01EB0451B8
:10405000BDE81040A8BF704701F1C0414FF000001B
:1040600001F000417047B0FA80F310FA03F100D17B
:1040700010BDE41A173C4805C90AE4E701EB0451F6
:1040800010BD491001EB0451BDE810404FEA30006B
:1040900002E04FF0000170474A0008BF0042F8D02C
:1040A000B2F5001F28BF704701F000414FF000003B
:1040B00070479EEA445F07D011EA5E0FBDE81040EA
:1040C00004BF002100207047BDE8104070B5FFF725
:1040D00095FE00BF40DFF63E83F00041104670477A
:1040E0000000E0FF4FF04070E1EE100A7047FCF76F
:1040F0000ABB0000000000000000010203040607E4
:104100000809000000000102030400000000000094
:10411000000000000088B340000000000060514033
:10412000450000000000000075313D2025372E308D
:10413000662C75323D2025372E316620722F730D87
:104140000A00000002400000000000A00000000083
:1041500005400000000000C8000000000C40000006
:104160000000409C00000000194000000020BCBE80
:104170000000000034400000BFC91B8E0000000496
:10418000B5400000504BCFD06607E2CF01000000E1
:104190006C4100003E8251AADFEEA734010000000E
:1041A000D9420000DCB5A0E23A301F97FFFFFFFFC5
:1041B000B4450000FD25A0C8E9A3C14FFFFFFFFFE4
:1041C000FF3F00000000008000000000FF3F0000F3
:1041D00000000080000000001442000800000020E1
:1041E00028000000C40100083C420008280000200C
:1041F000380C0000E00100081C0000004300000033
:10420000F8FFFFFF0C0000000E0000000F00000090
:104210002E0000000100000010000000000000005F
:104220000024F40000000000000000000000000076
:0C42300000000000000000000000000082
:040000050800018965
:00000001FF
