:020000040800F2
:10000000280E002029020008CB1900080917000853
:10001000C91900081F040008E120000800000000C2
:10002000000000000000000000000000CF190008E0
:100030002104000800000000CD190008D1190008B3
:10004000430200084302000843020008430200087C
:10005000430200084302000843020008430200086C
:10006000430200084302000841040008430200085C
:10007000430200084302000843020008430200084C
:10008000430200084302000843020008430200083C
:10009000430200084302000843020008430200082C
:1000A000430200084302000843020008430200081C
:1000B000430200084302000843020008430200080C
:1000C00043020008430200084302000843020008FC
:1000D00043020008152000084302000843020008FC
:1000E00043020008430200084302000843020008DC
:1000F00043020008430200084302000843020008CC
:1001000043020008430200084302000843020008BB
:1001100043020008430200084302000843020008AB
:10012000430200084302000843020008430200089B
:10013000430200084302000843020008430200088B
:10014000430200084302000843020008430200087B
:10015000430200084302000843020008430200086B
:10016000430200084302000843020008430200085B
:100170004302000843020008430200080000000098
:10018000430200084302000800F002F800F03CF8C7
:100190000AA090E8000C82448344AAF10107DA45E2
:1001A00001D100F031F8AFF2090EBAE80F0013F0F8
:1001B000010F18BFFB1A43F001031847881F000006
:1001C000A81F0000103A24BF78C878C1FAD8520797
:1001D00024BF30C830C144BF04680C6070470000C1
:1001E0000023002400250026103A28BF78C1FBD840
:1001F000520728BF30C148BF0B6070471FB501F0E0
:100200008FFF1FBD10B510BD00F0CFF81146FFF7EE
:10021000F5FF01F076FF00F0EDF803B4FFF7F2FF11
:1002200003BC00F0F5F80000094880470948004782
:10023000FEE7FEE7FEE7FEE7FEE7FEE7FEE7FEE796
:10024000FEE7FEE704480549054A064B70470000F3
:10025000651A00088901000828080020280E0020DF
:10026000280A0020280A002053EA020C00F06980C6
:100270002DE9F04B4FF00006002B1FBFB3FA83F5BA
:1002800003FA05F424FA05F65E4012BF1643B2FAEB
:1002900082F502FA05F4C5F120051EBF22FA05FC1D
:1002A00044EA0C04203556EA044C4FEA144418BFC3
:1002B000641C4FF000084FF00009904271EB030CF2
:1002C00039D3002919BFB1FA81F701FA07F6B0FA5C
:1002D00080F700FA07F6C7F120071EBF20FA07FCD7
:1002E00046EA0C062037B6FBF4FCA7EB0507103FE7
:1002F00007F01F0BCBF120060CFA0BFB2CFA06F6CD
:1003000044BFB3460026202FA4BF5E464FF0000B2B
:100310005BEA060C08BF4FF0010B19EB0B09ABFBB6
:10032000027C48EB0608C01B06FB02CC0BFB03CC8F
:1003300071EB0C01C1E70B46024641464846BDE859
:10034000F08B13B54FF000004FF00001AFF30080C9
:10035000BDE81C4070474FF0000200B513469446BC
:100360009646203922BFA0E80C50A0E80C50B1F10D
:100370002001BFF4F7AF090728BFA0E80C5048BF21
:100380000CC05DF804EB890028BF40F8042B08BFBF
:10039000704748BF20F8022B11F0804F18BF00F8BB
:1003A000012B7047704770477047754600F02CF876
:1003B000AE4605006946534620F00700854618B052
:1003C00020B5FFF73FFFBDE820404FF000064FF09B
:1003D00000074FF000084FF0000B21F00701AC467A
:1003E000ACE8C009ACE8C009ACE8C009ACE8C00999
:1003F0008D46704710B50446AFF300802046BDE837
:100400001040FFF70ABF000000487047C8070020EF
:1004100001491820ABBEFEE7260002007047FEE748
:100420007047000010B5054C1021204600F0C0F9BF
:100430002046BDE81040202100F0BAB9000002407B
:10044000102000F0B1B872B6FEE72DE9F041044685
:10045000876D00F0BBF9064694F8350000250228A8
:1004600006D08020606584F834500120BDE8F0811A
:100470002068016821F0160101602068416921F0BF
:1004800080014161206C08B9A06C20B1206801682E
:1004900021F0080101602068016821F0010101607C
:1004A0000CE000F093F9801B052807D92020606537
:1004B000032084F8350084F83450D7E720680068BA
:1004C000C007EED194F85C103F208840B86001204E
:1004D00084F8350084F834500020C7E790F83510D0
:1004E000022903D08021416501207047052180F851
:1004F00035100068016821F001010160002070479B
:100500000021B0F5807F37D010DC10282CD006DC1D
:10051000022823D0042823D008283CD122E0202818
:1005200024D0402824D0802835D123E0B0F5805F46
:100530002AD009DCB0F5007F20D0B0F5806F1FD045
:10054000B0F5006F27D11DE0B0F5005F1ED0B0F50B
:10055000804F1DD0B0F5004F1DD11BE001211AE0E6
:10056000022118E0032116E0042114E0052112E025
:10057000062110E007210EE008210CE009210AE025
:100580000A2108E00B2106E00C2104E00D2102E025
:100590000E2100E00F21034850F82100002800D070
:1005A00000477047C4020020044910B50A6802429F
:1005B00002D00860FFF7A4FF10BD0000143C01400A
:1005C0002DE9F84FDFF8BCA1002201250AF1040B48
:1005D00003264FF00F090BF1040E00BF0B6805FA5C
:1005E00002F42340A34270D10F7907F00307012FD3
:1005F00001D0022F16D187684FEA420806FA08FC9C
:1006000027EA0C07D1F80CC00CFA08FC4CEA070CDE
:10061000C0F808C04768A7430C79C4F3001494409D
:100620003C4344600C79E443A4070AD0C4684FEA11
:10063000420C06FA0CF7BC438F6807FA0CF7274305
:10064000C7600C7904F00304022C12D1D40800EB2B
:10065000840CDCF820405707FF0E09FA07F824EA5B
:100660000804D1F8108008FA07F848EA0408CCF822
:10067000208004684FEA420C06FA0CF7BC430F795D
:1006800007F0030707FA0CF7274307604C6814F4D8
:10069000403F70D03C4C276847F48047276024686F
:1006A00022F0030704F480440094384C07EB040C58
:1006B000DCF8084897074FEA177809FA08F7BC43AF
:1006C000334FB84202D1002724E054E0314FB84202
:1006D00001D101271EE0304FB84201D1022719E0B5
:1006E0002E4FB84201D1032714E02D4FB84201D15B
:1006F00004270FE02B4FB84201D105270AE02A4F0B
:10070000B84201D1062705E0284FB84201D107279A
:1007100000E0082707FA08F72743CCF80878DAF84A
:1007200000405746D1F804C09C435FEACC3C00D55A
:100730001C433C60DBF800405F46D1F804C09C439A
:100740005FEA8C3C00D51C433C60DEF800407746F5
:10075000D1F804C09C435FEACC2C00D51C433C601C
:10076000084F0C373C68D1F804C09C435FEA8C2CDE
:1007700000D51C433C60521C102AFFF42FAFBDE88B
:10078000F88F0000003C0140443802400030014036
:10079000000002400004024000080240000C024039
:1007A000001002400014024000180240001C0240E9
:1007B000426921EA02030A4043EA0241816170472B
:1007C0000AB1816170470904FBE7000001488068B5
:1007D0007047000000000020024881680278114440
:1007E00081607047000000200B4810B5016841F49B
:1007F00000710160016841F480610160016841F4A9
:1008000080710160032000F06FF80F2000F006F8FF
:1008100000F024F8002010BD003C024070B50D4DE2
:1008200004464FF47A712878B1FBF0F00A49096860
:10083000B1FBF0F000F00CFB48B9102C07D20022FD
:100840002146501E00F030F800206C6070BD012081
:1008500070BD0000000000200C0000200A4808B510
:10086000016841F480410160006800F4804000901C
:100870000548001F016841F080510160006800F0E8
:100880008050009008BD000044380240002809DB79
:1008900000F01F02012191404009800000F1E0209A
:1008A000C0F8001170470000F0B40E4B1B680C46F6
:1008B000C3F30223C3F10705042D00D90425191D34
:1008C000072901D2002300E0DB1E012606FA05F10C
:1008D000491E214099409E40761E16403143F0BC8F
:1008E00001F0FFBB0CED00E0064900F007020868CC
:1008F0004FF6FF03184040EA0220034A1043086005
:10090000704700000CED00E00000FA052DE9F0470B
:100910000E46050065D0DFF81481D8F80000F7B264
:1009200000F00700B04207D288F80070D8F8000045
:1009300000F00700B04254D128683D4C810712D521
:10094000400703D5206840F4E05020602878000775
:1009500003D5206840F4604020602068A96820F03A
:10096000F000084320602878C0072DD0304968681F
:100970000839012812D0022813D0032811D00968A1
:10098000890700292DDA216821F003010143216044
:10099000FFF71CFF814641F2883A0EE0096889039F
:1009A000EFE709688901ECE7FFF710FFA0EB090109
:1009B000514502D90320BDE8F0872068696800F03E
:1009C0000C00B0EB810FEFD1D8F80010404601F0D9
:1009D0000701B14207D90770006800F00700B04274
:1009E00001D00120E7E72878400705D52068E968AD
:1009F00020F4E050084320602878000706D52068DE
:100A0000296920F4604040EAC100206000F038F815
:100A10002168084AC1F30311515CC84006490860C7
:100A200006480068FFF7FAFE0020C4E7003C0240D9
:100A3000083802402A2100080C0000200400002091
:100A40000448054900680968044AC1F38221515CE1
:100A5000C84070470C000020083802403A210008C6
:100A60000448054900680968044AC1F34231515CF1
:100A7000C84070470C000020083802403A210008A6
:100A8000154810B5006810F00C02144813D0144932
:100A9000042A0FD0082A0ED10F4C241F2268236885
:100AA00002F03F025B0207D52068C0F38810A0FB6C
:100AB000010106E0084610BD2168C1F38811A1FBC1
:100AC00000010023FFF7D0FB2168C1F30141491C5D
:100AD0004900B0FBF1F010BD083802400024F400DA
:100AE00040787D012DE9F84F04006ED02078DFF8C2
:100AF0004C93C007A9F104054AD009F1040001682C
:100B0000C1F38101012908D00068C0F381000228E7
:100B10000AD1D9F80000400206D52868800337D5ED
:100B200060680028E1D033E06068B0F5803F10D005
:100B3000B0F5A02F286810D020F4803028602868F5
:100B400020F4802028606068A8B1FFF73FFE0646C9
:100B50000DE0286840F48030F4E740F480202860FD
:100B6000F7E700BFFFF732FE801B642873D82868C0
:100B70008003F7D50CE0FFF729FE064605E000BF2D
:100B8000FFF724FE801B6428F0D828688003F7D480
:100B90002078DFF8AC8280074FF0000A3ED5A748E6
:100BA000001D016811F00C0F08D00068C0F381002F
:100BB00002280BD1D9F80000400207D4286880072A
:100BC00016D5E068012800D112E033E1E068B8B141
:100BD0000120C8F80000FFF7F9FD064605E000BF58
:100BE000FFF7F4FD801B0228C0D828688007F7D5DE
:100BF0002868216920F0F80040EAC10028600DE073
:100C0000C8F800A0FFF7E2FD064604E0FFF7DEFDAE
:100C1000801B02281FD828688007F7D42078000797
:100C200022D5864F87486169703771B10121016013
:100C3000FFF7CCFD064604E0FFF7C8FD801B022845
:100C400009D838688007F7D50EE0C0F800A0FFF794
:100C5000BDFD064605E082E0FFF7B8FD801B0228D7
:100C60007DD838688007F7D42078400768D5DFF84A
:100C7000CCB100270BF13C0BDBF80000C0000BD41B
:100C8000DBF8001041F08051CBF80010DBF80000D9
:100C9000012700F0805000906B4E3068C00510D4E2
:100CA000306840F480703060FFF790FD009005E000
:100CB000FFF78CFD0099401A022850D83068C00513
:100CC000F6D55E4EA0686C3601280FD00528306836
:100CD00010D020F001003060306820F00400306057
:100CE000A068B8B1FFF772FD00900FE0306840F0E7
:100CF0000100F4E740F004003060F7E7FFF766FD1D
:100D00000099411A41F28830814266D830688007E4
:100D1000F4D50EE0FFF75AFD009007E0FFF756FD0F
:100D20000099411A41F28830814256D830688007D4
:100D3000F4D42FB1DBF8001021F08051CBF8001073
:100D4000A069C8B33D49091D0968C1F381010229A1
:100D50004AD00228504607D0C8F8600000E03CE0C6
:100D6000FFF734FD04463BE04746C8F86000FFF754
:100D70002DFD064605E000BFFFF728FD801B022879
:100D80002BD828688001F7D4D4E907010843A16A69
:100D90002E4A490802EB0141626A41EA8211084386
:100DA00094F82C1040EA0161C9F80010012038665F
:100DB000FFF70CFD044606E03EE000BFFFF706FD2E
:100DC000001B022809D828688001F7D534E000BF4D
:100DD000FFF7FCFC001B022802D90320BDE8F88FB6
:100DE00028688001F4D427E00128F7D0D9F8000062
:100DF000E26900F4800191421CD1226A00F03F01B7
:100E0000914217D147F6C071626A0140B1EB821F6F
:100E100010D1A26A4FF0FF3300F4403103EB5202CD
:100E2000B1EB024F06D194F82C1000F07060B0EBDB
:100E3000016F01D00120D1E70020CFE70438024044
:100E400000004742800E4742007000400000FFFF54
:100E500010B5401EB0F1807F01D3012010BD4FF0CE
:100E6000E02460610F21601701F03BF90020A061D0
:100E700007202061002010BD70B590F83C20012AA9
:100E800032D0012480F83C40022280F83D200368E3
:100E90005A689D6822F070060A6832435A60134B04
:100EA00002689A4214D0B2F1804F11D0104B9A428E
:100EB0000ED0104B9A420BD00F4B9A4208D00F4BDA
:100EC0009A4205D00E4B9A4202D00E4B9A4204D160
:100ED000496825F080031943916080F83D40002166
:100EE00080F83C10084670BD022070BD0000014033
:100EF0000004004000080040000C004000040140D5
:100F0000004001400018004010B5040003D094F8E0
:100F10003D0010B107E0012010BD002084F83C0026
:100F2000204600F01FF8022084F83D00211D2068B3
:100F300000F0A0FD012084F8460084F83E0084F80B
:100F40003F0084F8400084F8410084F8420084F8AF
:100F5000430084F8440084F8450084F83D000020F4
:100F600010BD000008B50068B0F1804F08D10548F9
:100F7000016841F001010160006800F0010000908B
:100F800008BD00004038024070B5044690F83C00AF
:100F90000025012817D0012684F83C60022084F83F
:100FA0003D002068826822F0770222F47F4282604E
:100FB0000868502838D00DDC20284FD005DC90B3CD
:100FC000102811D14AE0022070BD302846D04028B8
:100FD0000AD13BE060282FD070280DD0B0F5805F9B
:100FE00003D0B0F5005F12D0012584F83D600020E9
:100FF00084F83C00284670BDCB68D1E90121206807
:1010000000F0A9FD2068816841F0770109E0CB6814
:10101000D1E90121206800F09EFD2068816841F43B
:1010200080418160E1E719E0CA684968206800F002
:1010300067FE5021206806E0CA684968206800F011
:1010400070FE6021206800F090FDCEE7CA68496814
:10105000206800F055FE40212068F4E72268014630
:101060001046F0E790F83C20012A0CD0012200F84D
:101070003C2F0223437050F83C3C596142700021E0
:1010800001700846704702207047000010B586B016
:10109000044614216846FFF75EF92068B0F1804FDE
:1010A00015D10C480021026842F00102026000687C
:1010B00000F001000590042000900220CDE901011C
:1010C0000120CDE9031069460348FFF779FA06B01D
:1010D00010BD0000303802400000024070B50446E8
:1010E00090F83C0000260D4601280FD0012084F81E
:1010F0003C006AB1042A1DD0082A2FD00C2A3FD008
:101100000126002084F83C00304670BD022070BDEE
:10111000206800F033FD2068816941F00801816199
:101120002068816921F004018161206881692A6950
:10113000114311E0206800F051FD2068816941F4FD
:10114000006181612068816921F48061816120688A
:1011500081692A6941EA02218161D2E7206800F0B1
:1011600073FD2068C16941F00801C1612068C1694F
:1011700021F00401C1612068C1692A69114311E0AD
:10118000206800F095FD2068C16941F40061C161EB
:101190002068C16921F48061C1612068C1692A6940
:1011A00041EA0221C161ACE710B5040003D094F814
:1011B0003D0010B107E0012010BD002084F83C0084
:1011C000204600F01EF8022084F83D00211D206812
:1011D00000F050FC012084F8460084F83E0084F8BA
:1011E0003F0084F8400084F8410084F8420084F80D
:1011F000430084F8440084F8450084F83D00002052
:1012000010BD704710B50446022249B104290ED022
:10121000082913D094F84100012816D0012010BDF0
:1012200094F83E000128F9D184F83E200FE094F8AC
:101230003F000128F2D184F83F2008E094F84000F4
:101240000128EBD184F8402001E084F841200122FC
:10125000206800F073FC16492068164A884201D0C5
:10126000904203D1436C43F40043436420688842B6
:1012700013D0B0F1804F10D00F4988420DD00F49E4
:1012800088420AD00E49884207D0904205D00D49C5
:10129000884202D00C49884204D1816801F00701DC
:1012A000062903D0016841F001010160002010BD52
:1012B000000001400004014000040040000800401C
:1012C000000C004000400140001800407047000042
:1012D000084A08B50749121D12680968824207D1F9
:1012E000026C120702D50068406800900220087264
:1012F00008BD000020000020F8B501680446086819
:10130000CA684B6910F00F0F4FF0000559D003F079
:10131000010602F49077374365D0C10705D0D105A7
:1013200003D5216C41F001012164410705D5D9079E
:1013300003D0216C41F002012164810705D5D90752
:1013400003D0216C41F004012164010707D502F0AC
:101350002001314303D0216C41F008012164216C4C
:1013600000293AD0800604D5900602D5204600F028
:101370004EFD20684069216CC0F38010090700D43D
:1013800060B3204600F01CFD20684069400621D56E
:101390002068143050E8001F21F0400140E800129E
:1013A000002AF5D1A06BA8B16C490165A06BFFF7CD
:1013B00095F8002811D0A06B016D01B0BDE8F04098
:1013C000084783060FD593060DD52046BDE8F840A3
:1013D00000F01DBD2046FFF77BFFF8BD2046FFF75C
:1013E00077FF2564F8BD266B2023012E79D1C60630
:1013F00077D5D60675D508684868009048694006D4
:1014000040D5A16B086840680004000CEAD0A28DAA
:101410008242E7D9E085C869B0F5807F2DD0206889
:101420000C3050E8001F21F4807140E80012002ABF
:10143000F5D12068143050E8001F21F0010140E888
:101440000012002AF5D12068143050E8001F21F066
:10145000400140E80012002AF5D184F83E302563AF
:1014600020680C3050E8001F21F0100140E8001205
:10147000002AF5D1A06BFEF7E8FFA08DE18D401AA0
:1014800081B229E0A08DE18D401A81B2E08D002863
:10149000A8D00029A6D020680C3050E8002F22F4F4
:1014A000907240E80026002EF5D12068143050E8F4
:1014B000002F22F0010240E80026002EF5D184F82A
:1014C0003E30256320680C3050E8002F22F01002D7
:1014D00040E80023002BF5D12046FFF7F7FEF8BDCA
:1014E000FFE705062BD5150629D594F83D002128E0
:1014F000F5D1A068B0F5805F01D12069B0B1206A54
:10150000411C2162216800784860E08C401E000484
:10151000000CE084E3D12068C16821F08001C16043
:101520002068C16841F04001C160D8E7206A0088A6
:10153000C0F308004860206A801C2062E5E740068E
:10154000CDD55006CBD5CA68204622F04002CA60ED
:1015500084F83D3000F0B6F8C1E70000B11D000886
:1015600070B5040004D094F83D00002510B106E0E9
:10157000012070BD84F83C50204600F023F8242060
:1015800084F83D002068C16821F40051C160204604
:1015900000F09EFC2068016921F4904101612068FF
:1015A000416921F02A0141612068C16841F400517C
:1015B000C1602564202084F83D0084F83E000020AE
:1015C00070BD000010B586B0044614216846FEF7D1
:1015D000C2FE18492068884229D1174800210268B4
:1015E00042F010020260006800F0100005901248FE
:1015F0001438026842F001020260006800F0010045
:1016000005904FF4C06000900220CDE90101032055
:1016100003900720049069460848FEF7D1FF002296
:1016200011462520FFF740F92520FFF72FF906B0D6
:1016300010BD00000010014044380240000002408C
:1016400090F83E30202B0ED159B152B190F83C3079
:10165000012B08D0012380F83C300023036300F005
:10166000BDBC01207047022070470000044A0449B5
:10167000121D12680968824201D101200872704768
:101680002000002090F83D30202B18D1A9B1A2B144
:1016900090F83C30012B12D001628284C284002178
:1016A0000164212280F83D2080F83C100068C16868
:1016B00041F08001C1600020704701207047022086
:1016C000704700000F4A0F49121D126809688242D4
:1016D00011D1012081F820004A88486910444861EE
:1016E000CA68904201D38868486191F8210018B116
:1016F000022081F82100704708884A88801A0880F3
:101700007047000028000020FEE7000070B5264961
:10171000244A23480988254C472542F82100244AB9
:10172000322342F82140234940F2E7320560C0E904
:1017300001122149C160511C016100218161C0E990
:101740000713092341620375437501268675C37526
:10175000C0F88010C0F88410C0F88810C0F88C1051
:10176000C0F89010206885622068C262E26021683B
:101770004FF4FA70C86331462046FFF773FC00F05F
:101780004FFC00F07FFC00BF94F83D000228FBD026
:1017900008210648FFF736FD09490848086170BD71
:1017A000040300201400002010000020300000205E
:1017B0001800002000A24A0440420F00250400083F
:1017C000C402002070B51B4D287A00261A4C02284E
:1017D00007D129686960A6802E720A221748FFF790
:1017E0002FFF287A012811D10A20A0806868206084
:1017F000002069682318401C11F8012B1A7280B26E
:1018000069600A28F5D30E7002202872A2881AB1E6
:101810000B48216800F097FA094D288818B1E68036
:10182000284600F015FC95F82000002801D06888B3
:10183000E08070BD98050020BC00002078000020EA
:10184000A407002030B587B014216846FEF783FD59
:1018500025480024016841F010010160016801F091
:1018600010010591016841F080010160016801F0FB
:1018700080010591016841F001010160016801F0FA
:1018800001010591016841F0020101600068174DF6
:1018900000F002000590012210212846FEF790FF7B
:1018A000002220212846FEF78BFF102000904FF4E5
:1018B0000410CDE9010469460D48FEF781FE302091
:1018C00000900120CDE90104694628460394FEF703
:1018D00077FE002202210A20FEF7E6FF0A20FEF72B
:1018E000D5FF07B030BD0000303802400000024094
:1018F0000010024010B58EB000240794089409949B
:101900000A940B941C2168460C94FEF724FD1F4892
:101910004FF0804101604721C0E9011440F2E731F6
:10192000C0E903148461FFF7EFFA08B1FEF78BFDFD
:101930004FF48050079007A91448FFF725FB08B122
:10194000FEF781FD1148FFF72FFC08B1FEF77BFD84
:101950000B940BA90D480C94FFF78EFA08B1FEF713
:1019600072FD6020009040F2F310CDE901040822DE
:10197000694606480494FFF7B1FB08B1FEF763FD22
:101980000248FFF783FB0EB010BD000030000020BE
:101990000C4810B50A4901604FF4E1314160002163
:1019A00081600C22C160C0E904128161C161FFF74E
:1019B000D7FD002803D0BDE81040FEF744BD10BDA0
:1019C0000010014078000020FEE7FEE770477047F6
:1019D000FEF702BF30B593B030216846FEF7BBFC7E
:1019E00014210CA8FEF7B7FC1C480024016841F044
:1019F00080510160006800F0805011901848016823
:101A000041F4804101600068022500F4804011909B
:101A10000120039010200490009506950820CDE940
:101A200007404820CDE9090504200B906846FFF7E0
:101A300059F808B172B6FEE70F20CDE90C054FF456
:101A40008050CDE90E4002210CA81094FEF75EFFF5
:101A5000002801D072B6FEE713B030BD4038024016
:101A6000007000400248016841F470010160704755
:101A700088ED00E0F0B50268254C264D264E274F34
:101A8000274B4FF0804CA04209D0604507D0A842B8
:101A900005D0B04203D0B84201D0984204D122F020
:101AA000700E4A6842EA0E02A0421BD0604519D06F
:101AB000A84217D0B04215D0B84213D0984211D0E6
:101AC000184DA8420ED0184DA8420BD0174DA84271
:101AD00008D0174DA84205D0164DA84202D0164D89
:101AE000A84203D122F44075CA682A434D6922F006
:101AF00080022A4302608A68C2620A688262A04247
:101B000001D0984201D10969016301214161F0BD11
:101B1000000001400004004000080040000C0040AC
:101B200000040140004001400044014000480140E1
:101B300000180040001C00400020004010B501F0DB
:101B40001F030121046A99408C430462016A9A4090
:101B50001143016210BD10B5846842EA032224F4E7
:101B60007F440A432243826010BD826822F07002E3
:101B70000A4342F00701816070470000F0B5026A35
:101B800022F001020262036A42688469124E24F064
:101B900073050C682C4323F002058B682B430D4D15
:101BA000A84201D0B04205D123F00807CB683B43DF
:101BB00023F00403A84201D0B04205D14D6922F4BC
:101BC000407215438A692A434260846149684163CF
:101BD0000362F0BD0000014000040140F0B5026A5C
:101BE00022F010020262026A436884690D6824F4DC
:101BF000E64444EA05248D6822F0200242EA0512F8
:101C00000F4D104EA84201D0B04206D1CF6822F04D
:101C1000800242EA071222F04002A84201D0B042FC
:101C200007D14D6923F4406343EA85038D6943EA94
:101C3000850343608461496881630262F0BD0000EE
:101C40000000014000040140F0B5026A22F48072F5
:101C50000262026A4368C46922F4007224F07305C8
:101C60000C68124E2C438D6842EA05220E4DA842A4
:101C700001D0B04206D1CF6822F4006242EA0722C6
:101C800022F48062A84201D0B04207D14D6923F40A
:101C9000405343EA05138D6943EA05134360C46169
:101CA0004968C1630262F0BD0000014000040140C8
:101CB00030B5026A22F480520262046A4268C36943
:101CC0000D6823F4E64343EA05238D6824F40054A9
:101CD00044EA0534084DA84202D0084DA84204D178
:101CE0004D6922F4804242EA85124260C36149682C
:101CF0000164046230BD00000000014000040140A6
:101D000010B5036A046A24F001040462846924F0B3
:101D1000F00444EA021423F00A020A4384610262D6
:101D200010BD10B5036A23F0100303628369046ACF
:101D300023F4704343EA023224F0A00343EA011182
:101D40008261016210BDF0B500231C4617E0D0E9A6
:101D50000456B54201D106889EB911F8017B6E1C6C
:101D600006612F70D0E904565B1C9BB2B54208D0C7
:101D7000C668B54201D185680561641CA4B294426D
:101D8000E5D3012180F821100188194489B201802E
:101D900090F82140022C02D14488091B01800021C7
:101DA00080F82110934202D28188491C8180F0BDC5
:101DB00010B5806B0021C185C184FFF789FA10BD81
:101DC00001680C3151E8002F22F4907241E80023A1
:101DD000002BF5D10168143151E8002F22F00102E7
:101DE00041E80023002BF5D1016B012909D10168DD
:101DF0000C3151E8002F22F0100241E80023002BA3
:101E0000F5D1202180F83E1000210163704708B50C
:101E100090F83E10222901D0022008BD82684FF4BC
:101E200080539A4201D1016921B1816A9A421BD043
:101E30004AB10AE00268816A5268C2F308020A8065
:101E4000816A891C08E0026972B10268526802F076
:101E50007F020A70816A491C8162C18D491E090492
:101E6000090CC18503D019E002685268F1E70168E6
:101E7000CA6822F02002CA600168CA6822F480722F
:101E8000CA6001684A6922F001024A61202180F893
:101E90003E10016B012903D0FFF7E8FB002008BDCD
:101EA0000021016301680C3151E8002F22F010027B
:101EB00041E80023002BF5D101680A68D20602D55B
:101EC0000A6849680091818DFFF700FAE6E7000093
:101ED00070B5044600680169E26821F4405111437D
:101EE00001612169A068E2690843616911430843FF
:101EF0002168CA6849F20C639A430243CA602068A9
:101F00004169A26921F4407111434161314920685E
:101F1000884202D03049884202D1FEF7A1FD01E09B
:101F2000FEF78EFDE2690023192164253226B2F501
:101F3000004F626828D0A0FB0101930F9200FEF7CA
:101F400093F90146B0FBF5F06FF01802504301EB36
:101F5000800006EB0010B0FBF5F000F0F002B1FBE2
:101F6000F5F002EB0012B1FBF5F06FF018035843E7
:101F700001EB800006EB0010B0FBF5F000F00F0065
:101F800021681044886070BDA0FB010192185B417C
:101F9000FEF76AF90146B0FBF5F00201B1FBF5F07E
:101FA0006FF01803584301EB800006EBC000B0FB54
:101FB000F5F000F0F80002EB4002B1FBF5F05843F9
:101FC00001EB800006EBC000B0FBF5F000F007006D
:101FD000D6E70000001001400014014081628285B4
:101FE000C28500210164222280F83E2080F83C1046
:101FF0000168CA6842F48072CA6001684A6942F0A6
:1020000001024A610068C16841F02001C1600020FE
:10201000704700000148FFF76FB90000780000200A
:10202000084901F500700160416002210172064A11
:10203000111F098842F82100121D044842F82100AE
:102040007047000098030020200000207800002046
:1020500090F82010002912D00388002B0FD0002107
:1020600080F8201082894169521A92B2934202D8B4
:1020700043801A4600E042800148FFF703BB7047E7
:1020800078000020114800214FF400720180418047
:102090008180C280A0F500720346C0E9022302617C
:1020A00042610B4A82610B4AC261022280F8202001
:1020B00080F82110084AA2F10C01498842F8210059
:1020C000121D064842F8210070470000A4070020B6
:1020D000471D00085120000828000020780000203B
:1020E000FEE70907090E002804DB00F1E02080F874
:1020F0000014704700F00F0000F1E02080F8141D7C
:102100007047FEF771FBFFF765FCFFF79BFBFFF7DE
:10211000F1FBFFF73DFCFFF7F9FAFFF753FBFCE794
:102120004FF04070E1EE100A704700000000000020
:102130000000010203040607080900000000010274
:1021400003040000642100080000002030000000AB
:10215000C40100089421000830000020F80D0000A0
:10216000E001000801000000100000000000000075
:102170000024F40000000000000000000000000047
:10218000000000000000000000000000000000004F
:04219000000000004B
:040000050800018965
:00000001FF
